:020000040000FA
:1000000001288B01831688010617831203148801C7
:100010008601A001880D2028061F0F282C28081C07
:100020000A2803180A281A282018182803142C282C
:1000300008102C2808080311FF3A0319282814284F
:1000400008080311003A031906280C282014142864
:100050003828061F262828280D30A500FF30A600C6
:10006000A700A70B3128A60B3028A50B2F280A289C
:100070000D30A500FF30A600A700A70B3D28A60B5A
:080080003C28A50B3B282928B0
:02400E00723FFF
:00000001FF
