:020000040000FA
:1000000001288B01831688010617831203148801C7
:100010008601A001880D2028061F0F282828081C0B
:100020000A2803180A281A28201818280314282830
:100030000810282808080311FF3A0319402814283B
:1000400008080311003A031906280C282014142864
:100050000D30A500FF30A600A700A70B2D28A60B8A
:100060002C28A50B2B280A280D30A500FF30A60050
:10007000A700A70B3928A60B3828A50B372841283D
:080080003428061F2628402841
:02400E00723FFF
:00000001FF
